:020000040800F2
:10000000D006002089010008D5130008B10F0008B0
:10001000D31300088F0200087714000800000000C6
:1000200000000000000000000000000011140008A3
:100030009102000800000000D71300081314000804
:10004000A3010008A3010008A3010008A301000800
:10005000A3010008A3010008A3010008A3010008F0
:10006000A3010008A3010008A3010008A3010008E0
:10007000A3010008A3010008A3010008A3010008D0
:10008000A3010008A3010008A3010008A3010008C0
:10009000A3010008A3010008A3010008A3010008B0
:1000A000A3010008A3010008A3010008A3010008A0
:1000B000A3010008A301000800000000A30100083C
:1000C000A30100080000000000000000A3010008D8
:1000D00000000000A3010008A301000800000000C8
:1000E000A3010008A3010008A301000800F002F822
:1000F00000F03AF80AA090E8000C82448344AAF188
:100100000107DA4501D100F02FF8AFF2090EBAE885
:100110000F0013F0010F18BFFB1A43F0010318473B
:10012000B4160000D4160000103A24BF78C878C175
:10013000FAD8520724BF30C830C144BF04680C60ED
:10014000704700000023002400250026103A28BF35
:1001500078C1FBD8520728BF30C148BF0B60704739
:100160001FB51FBD10B510BD00F058F81146FFF7C0
:10017000F7FF01F091F900F076F803B4FFF7F2FF12
:1001800003BC00F07DF8000009488047094800479B
:10019000FEE7FEE7FEE7FEE7FEE7FEE7FEE7FEE737
:1001A000FEE7FEE704480549054A064B7047000094
:1001B00075140008ED000008D0000020D0060020D3
:1001C000D0020020D00200204FF0000200B51346FC
:1001D00094469646203922BFA0E80C50A0E80C5067
:1001E000B1F12001BFF4F7AF090728BFA0E80C5018
:1001F00048BF0CC05DF804EB890028BF40F8042B11
:1002000008BF704748BF20F8022B11F0804F18BF7D
:1002100000F8012B7047704770477047754600F033
:100220002BF8AE4605006946534620F00700854688
:1002300018B020B5FFF7B6FFBDE820404FF000062C
:100240004FF000074FF000084FF0000B21F00701BE
:10025000AC46ACE8C009ACE8C009ACE8C009ACE801
:10026000C0098D46704710B50446AFF300802046A4
:10027000BDE81040FFF781BF0048704770000020C4
:1002800001491820ABBEFEE7260002007047FEE7DA
:10029000704700002DE9F84FDFF89C910024A9F188
:1002A000040B23460F2709F1040AABF1040EBBE04F
:1002B0000125A5402A40AA4276D1DFF880C14E68C8
:1002C000A6EB0C0866452BD00DDC032E34D005DCE4
:1002D00036B3012E19D0022E2FD11BE0112E16D0CD
:1002E000122E2AD119E0B8F5881F19D006DCB8F50E
:1002F000803F15D0B8F5801F1FD111E0B8F5001F61
:100300000ED0B8F5041F18D10AE0CB6815E0CB6811
:100310001B1D12E0CB6808330FE0CB680C330CE0F8
:100320008B682BB1012B4FF0080303D0456104E02B
:10033000042302E0056100E00023FF2A01D80646FD
:1003400001E000F104064FEA840501D9A5F120057A
:10035000D6F8008007FA05FC28EA0C0803FA05F530
:1003600048EA0508C6F800804D68ED005BD5344DBD
:10037000AE6946F00106AE61AD6924F0030605F0F2
:10038000010500952F4D06EB050CDCF80850A6077B
:10039000360F07FA06F825EA0805DFF8AC80404575
:1003A00003D14FF0000810E03DE0DFF8A0804045A9
:1003B00002D14FF0010808E0DFF89480404502D1F7
:1003C0004FF0020801E04FF0030808FA06F848EA87
:1003D0000508CCF808804D68D9F80060ED024D465C
:1003E00001D5164300E096432E604D68DAF80060B0
:1003F000AD02554601D5164300E096432E604D6888
:10040000DBF80060AD035D4601D5164300E096437E
:100410002E604D68DEF80060ED03754601D5164389
:1004200000E096432E60641C0A6832FA04F57FF4FB
:100430003FAFBDE8F88F0000080401400000111034
:10044000001002400000014000080140000C014083
:100450000010014001488068704700000C00002037
:1004600070B5040025D094F83D00002520B984F82B
:100470003C50204600F076FA242084F83D002068A5
:10048000016821F0010101602068016841F4004128
:1004900001602068016821F40041016000F0AEFBBA
:1004A0004D4A6168914201D84C4900E04C4988426C
:1004B00001D2012070BD4B492368B0FBF1F15E68A9
:1004C00026F03F060E435E606368934206D94FF400
:1004D000967359434FF47A73B1FBF3F12368491CC7
:1004E0001E6A26F03F06314319626168914210D8B6
:1004F0004900401EB0FBF1F2521CC2F30B02042A69
:1005000001D2042022E0B0FBF1F0401CC0F30B004C
:100510001CE0A268F2B301EBC10303EB0116431E1A
:10052000B3FBF6F35B1C43F480431B0549D092B345
:1005300001EBC10202EB0111401EB0FBF1F0401CC7
:10054000C0F30B0040F4804040F400402168CA69C9
:100550004CF6FF739A431043C861D4E90710014376
:100560002068026822F0C00211430160D4E903014F
:1005700001432068826848F2FF339A431143816047
:10058000D4E9050108432168CA6822F0FF0210433C
:10059000C86001E00EE016E02068016841F001014A
:1005A00001602564202084F83D00256384F83E50D6
:1005B000002070BD01EB4106431EB3FBF6F35B1C4C
:1005C000B3E70120C2E701EB4101401EB0FBF1F0AF
:1005D000401CC0F30B00B7E7A086010080841E001A
:1005E00000093D0040420F002DE9F84F0025DDF8DD
:1005F0002890984617468A4604460095FFF72AFF3A
:10060000064694F83D0020287AD119230122864914
:100610002046009600F0D4FD0028F5D194F83C0067
:1006200001286DD0012084F83C0020680168C907CA
:1006300003D1016841F0010101602068016821F4E3
:1006400000610160222084F83D00102084F83E0003
:1006500025646762A4F82A80608D20857348E06273
:1006600033464A465146204600F0BAFC00287CD169
:10067000208DDFF8BC81202768B1012814D0022822
:10068000206801681ED041F48061016020684169E2
:1006900080690090BBE02068416981690091016830
:1006A00041F400710160B2E02068016821F48061CA
:1006B000016072B62068416981690091016841F466
:1006C00000710AE041F40061016072B6206841697E
:1006D00081690091016821F48061016062B696E051
:1006E000032865D801280CD002284B464FF00002A1
:1006F0004146204600960BD000F062FDA8BB0CE0FE
:1007000090E032464946204600F000FE68BB71E0AA
:1007100000F056FD48BB72B633E02068016821F452
:100720008061016072B620680069616A0870606A61
:10073000401C6062208D401E2085608D401E6085BB
:100740003C4846F2A8110068B0FBF1F0C0EBC000D5
:1007500000EB80000090401E009007D020684069A8
:10076000C04340070DD50098F5E727E044F8305F17
:100770006773A573206940F02000206162B625737D
:100780001CE02068016841F4007101602068006984
:10079000616A0870606A401C6062218D491E218573
:1007A000618D491E618562B621680969017025E085
:1007B00032464946204600F0A9FD10B10120BDE8AF
:1007C000F88F20680069616A0870606A401C606286
:1007D000208D401E81B22185608D401E608520687D
:1007E0004269D243520712D4032903D1016821F48C
:1007F0008061016020680069616A0870606A401C5D
:100800006062208D401E2085608D401E6085208D99
:1008100000287FF465AF84F83D7084F83E5084F87A
:100820003C50CCE70220CAE7020010000000FFFFA6
:1008300004000100180000202DE9F84F1F469046E3
:100840008A460446DDF82890FFF704FE054694F832
:100850003D0020287FD119230122404920460095E0
:1008600000F0AEFC002876D194F83C00012872D04C
:10087000012084F83C0020680168C90703D10168A1
:1008800041F0010101602068016821F4006101600C
:10089000212084F83D00102084F83E0000262664C4
:1008A000C4F824806785608D20852D48E0622B4642
:1008B0004A465146204600F009FC90B9206841693B
:1008C0008069009036E02A464946204600F056FDF1
:1008D00050B1206C042804D12068016841F40071F3
:1008E00001600120BDE8F88F606A21680078086126
:1008F000606A401C6062618D491E6185218D491EC0
:1009000089B2218522685369DB435B070BD451B15F
:1009100000781061606A401C6062608D401E6085D6
:10092000208D401E20852A464946204600F01CFCAA
:100930000028CED1208D0028C5D154F83D0B016888
:1009400041F400710160202004F81E09E677667703
:100950000020C7E7FFE70220C4E700000200100004
:100960000000FFFF10B586B00021009101910291B7
:10097000039100680E49884218D10E4CA06940F0DE
:100980000800A061A069694600F008000490C0203A
:100990000090122001900848FFF77CFCE06940F4C9
:1009A0000010E061E06900F40010049006B010BD92
:1009B0000054004000100240000C014002488168D1
:1009C00002781144816070470C000020074810B580
:1009D000016841F010010160032000F067F80F206A
:1009E00000F006F800F024F8002010BD00200240BE
:1009F00070B50D4D04464FF47A712878B1FBF0F0D4
:100A00000A490968B1FBF0F000F0BEFA48B9102CB1
:100A100007D200222146501E00F028F800206C600A
:100A200070BD012070BD00000C00002018000020E7
:100A30000C4808B5816941F001018161816901F0CB
:100A400001010091C16941F08051C161C06900F0AC
:100A5000805000900448416821F0E06141F000714D
:100A6000416008BD0010024000000140F0B40E4B90
:100A70001B680C46C3F30223C3F10705042D00D9FC
:100A80000425191D072901D2002300E0DB1E0126E1
:100A900006FA05F1491E214099409E40761E1640F7
:100AA0003143F0BC00F0E8BC0CED00E0064900F07A
:100AB000070208684FF6FF03184040EA0220034A85
:100AC00010430860704700000CED00E00000FA05DC
:100AD0002DE9F0470F46050061D0434E306800F025
:100AE0000700B84209D2306820F007003843306070
:100AF000306800F00700B84251D128683B4C8107AC
:100B000012D5400703D5606840F4E0606060287843
:100B1000000703D5606840F4605060606068A968B1
:100B200020F0F000084360602878C00728D068688B
:100B3000012810D02168022810D0890700292EDA58
:100B4000616821F0030101436160FFF783FC804687
:100B500041F288390DE021688903EFE78901EDE76B
:100B6000FFF778FCA0EB0801494502D90320BDE856
:100B7000F0876068696800F00C00B0EB810FEFD17E
:100B8000306800F00700B8420BD9306820F0070049
:100B900038433060306800F00700B84201D00120CF
:100BA000E5E72878400705D56068E96820F4E0604B
:100BB000084360602878000706D56068296920F43A
:100BC000605040EAC100606000F028F86168084A9F
:100BD000C1F30311515CC84006490860064800682B
:100BE000FFF706FF0020C2E700200240001002408D
:100BF000BA1700081800002010000020044805491A
:100C000000684968044AC1F30221515CC84070473A
:100C10001800002000100240CA1700080E4A516850
:100C20000E4801F00C03042B11D0082B0FD10C48F7
:100C3000C1F38343C903C05C0AD55168084AC1F3B4
:100C40004041921E515C054A5043B0FBF1F07047A1
:100C500004494843704700000010024000127A0027
:100C6000AA17000800093D002DE9F84F040070D0D4
:100C70002078C04DC00749D06868C0F381000128C2
:100C800007D06868C0F38100022809D16868C003F2
:100C900006D52868800339D560680028E7D035E09C
:100CA0006068B0F5803F0BD010B1B0F5A02F11D027
:100CB000286820F480302860286820F4802002E032
:100CC000286840F480302860606890B1FFF7C2FB6C
:100CD00006460AE0286840F480202860F0E700BF5C
:100CE000FFF7B8FB801B642873D828688003F7D50A
:100CF0000CE0FFF7AFFB064605E000BFFFF7AAFBDD
:100D0000801B6428F0D828688003F7D420789A4E96
:100D100080074FF001094FF0000839D5686810F0DE
:100D20000C0F07D06868C0F38100022809D16868F9
:100D3000C00306D42868800714D52069012808D18B
:100D400010E02069B0B1C6F80090FFF783FB0746BA
:100D500005E00AE1FFF77EFBC01B0228C4D8286823
:100D60008007F7D52868616920F0F80040EAC100E3
:100D700028600DE0C6F80080FFF76CFB074604E032
:100D8000FFF768FBC01B022823D828688007F7D428
:100D9000207800072CD57948A169D9B1C0F8009016
:100DA000FFF758FB074604E0FFF754FBC01B02287F
:100DB0000FD8686A8007F7D571484FF4FA51006878
:100DC000B0FBF1F0009000BF0098411E0091FAD2F4
:100DD0000EE080E0C0F80080FFF73CFB074604E02F
:100DE000FFF738FBC01B022875D8686A8007F7D464
:100DF0002078400760D5E8690027C00008D4E8697A
:100E000040F08050E861E869012700F080500090D0
:100E10005C480168C90513D40168834641F48071B8
:100E20000160FFF717FB824606E000BFFFF712FBE9
:100E3000A0EB0A0064284ED8DBF80000C005F5D509
:100E4000E06801280AD008B1052813D0286A20F0EC
:100E500001002862286A20F0040002E0286A40F0BD
:100E600001002862E06841F2883B98B1FFF7F2FA8E
:100E700082460BE0286A40F004002862EEE700BFDB
:100E8000FFF7E8FAA0EB0A0159455AD8286A80070B
:100E9000F6D50CE0FFF7DEFA824605E0FFF7DAFA56
:100EA000A0EB0A0159454CD8286A8007F6D41FB137
:100EB000E86920F08050E861E06988B36968C1F3AF
:100EC0008101022944D00228C6F8608004D0FFF7CF
:100ED000C1FA044638E034E0FFF7BCFA074604E004
:100EE000FFF7B8FAC01B02282BD828688001F7D476
:100EF000206AB0F5803F05D16868A16820F4003011
:100F000008436860D4E908010843696821F4741152
:100F100008436860C6F86090FFF79CFA044606E054
:100F200025E000BFFFF796FA001B022809D82868C1
:100F30008001F7D51BE000BFFFF78CFA001B0228E9
:100F400002D90320BDE8F88F28688001F4D40EE0B0
:100F50000128F7D06868226A00F48031914204D1F8
:100F6000616A00F47010884201D00120EAE7002095
:100F7000E8E70000001002400000424280044242C4
:100F8000180000200070004010B5401EB0F1807FB6
:100F900001D3012010BD4FF0E02460610F216017E4
:100FA00000F06AFA0020A06107202061002010BD37
:100FB000FEE701684A69D24352050FD46FF480629C
:100FC0004A61002140F8301F202242738173026978
:100FD00042F0040202610173012070470020704753
:100FE0002DE9F84F0446C06A1E4693460D46216817
:100FF0000A6842F480620A60082807D0012805D0F8
:1010000010F5803F02D0206B112804D120680168C0
:1010100041F4807101604FF001195B46002249469E
:101020002046009600F0CCF84FF4007840B12068DC
:101030000068C00501D5C4F840800320BDE8F88FE2
:101040002069DFF884A0B0F5804F0FD0062021681A
:1010500000EAD51747F0F000086133465A460AF116
:101060000601204600F0F4F858BB03E0E8B240F077
:1010700001001CE02168E8B2086133465A46514637
:10108000204600F0E5F8E0B92068416981690091E7
:10109000016841F4807101605B46002249462046A8
:1010A000009600F08DF80028C1D147F0F1002168CA
:1010B000086133465A465146204600F0C9F80028D8
:1010C000BCD00120BAE7000002000100F8B50446D8
:1010D000C06A1E460D461746082807D0012805D0CD
:1010E00010F5803F02D0206B122804D120680168DF
:1010F00041F480710160134600224FF00111204637
:10110000009600F05DF840B120680068C00502D587
:101110004FF4007020640320F8BD2069B0F5804FC3
:101120000ED00620216800EAD51040F0F0000861DA
:1011300033463A460B49204600F08AF878B902E077
:1011400005F0FE0000E0E8B2216808610549334679
:101150003A46891F204600F07BF80028DCD00120A9
:10116000F8BD00000800010070B516460D460446A3
:101170001EE02046FFF71DFF08B1012070BD681C6E
:1011800016D0FFF767F9801BA84200D885B9206800
:101190004069C04340070BD5002044F8300F2021A0
:1011A0006173A073216941F0200121612073E4E79C
:1011B00020684069C0434007DBD4002070BD0000B8
:1011C0002DE9F047984617460D460446C1F30746F9
:1011D000DDF820902AE000BFB8F1FF3F26D0FFF7EE
:1011E00039F9A0EB0901414502D8B8F1000F1DD132
:1011F0002068012E16D0806925EA00000004000C4A
:1012000012D00020B84211D1002044F8300F202124
:101210006173A073216941F02001216120730120D5
:10122000BDE8F0874069E7E70120EBE72068012E81
:101230000AD0806925EA00000004000C06D00020D6
:10124000B842C9D00020EBE74069F3E70120F7E797
:101250002DE9F047984616460D4604464FF0000922
:101260004FF0200AC1F3074723E020684069C043DC
:10127000400515D42068016841F4007101602168BF
:101280006FF480604861C4F8309084F83DA084F821
:101290003E90216C41F00401216484F83C9021E0EF
:1012A000701C06D0FFF7D6F8A0EB0800B04203D8B8
:1012B00016B1012F1FD021E02068012F15D08069C1
:1012C00025EA00000004000C18D000BF44F8309F4D
:1012D00084F80DA084F80E90216941F0200121616D
:1012E00084F80C900120BDE8F087406925EA0000F1
:1012F0000004000CEAD12068406901E020688069A0
:1013000025EA00000004000CAFD1ECE72DE9F04124
:10131000002590460E460446202728E04069C04339
:10132000C0060CD454F8301B6FF01000486144F82C
:1013300010596777A577206A2062257714E0FFF7B8
:1013400089F8A0EB0800B04200D886B9206840694F
:10135000C04340060BD544F8305F6773A57320691E
:1013600040F02000206125730120BDE8F081206855
:101370004169C9434906D1D40020F6E770B5164645
:101380000D4604461EE02046FFF713FE08B101207B
:1013900070BD681C16D0FFF75DF8801BA84200D80E
:1013A00085B920684069C04300060BD5002044F889
:1013B000300F20216173A073216941F02001216168
:1013C0002073E4E720684069C0430006DBD40020B6
:1013D00070BDFEE7FEE770472DE9FC411D468DF824
:1013E00004204FF0FF340F46089E012301AA07484E
:1013F0000094FFF721FA002806D133462A463946E1
:1014000002480094FFF7F0F8BDE8FC811C000020C2
:101410007047FFF7D3BA30B58FB028216846FEF782
:10142000D3FE14210AA8FEF7CFFE01210804CDE95E
:1014300000100024029402250491CDE907504FF4D6
:10144000E01009906846FFF70FFC08B172B6FEE79E
:101450000F20CDE90A054FF48060CDE90C40022150
:101460000AA80E94FFF734FB002801D072B6FEE7FD
:101470000FB030BD7047FEE70907090E002804DBF6
:1014800000F1E02080F80014704700F00F0000F138
:10149000E02080F8141D704708B5FFF797FAFFF7B2
:1014A000BAFF2E48816941F020018161816901F014
:1014B00020010091816941F004018161816901F09D
:1014C00004010091816941F008018161806924492A
:1014D00000F00800009023484FF480420160224948
:1014E000416000218160C0E9031241618161C161F5
:1014F0000162FEF7B5FF08B172B6FEE702251B4B8D
:101500000022482117480095FFF766FF174C641E1C
:1015100006E0164B0022482112480095FFF75CFFB9
:10152000207010F0FF0FF4D11048017840780901C5
:1015300041EA1010A080B0F5F06F02DB40F470407B
:10154000A080B4F9040000F04DF86FF0030200F041
:10155000E5F800F00DF8A060FEE700000010024082
:10156000005400401C000020A08601000100002063
:1015700021F00042A2F16052B2F5801F01F0004359
:1015800028BFD2F17F6C0BD95FEA001C43EAC2028C
:1015900042EB507018BF704728BF20F00100704721
:1015A000B2F5801FBCBF184670474FEA410C1CF5CE
:1015B000001F02D2084600F07AB870B500F029F892
:1015C00000000089FFF7F6BF4FF00040A0F5800053
:1015D0007047000002494FF0000000F06DB800BFF6
:1015E0000000F87F10F0004248BF4042B0FA80F39C
:1015F00010FA03F10AD0C3F11D0303F580634FEA2B
:10160000415002EB035202EBD12170474FF0000032
:1016100070470EF1020E2EF0030E5EF8046B364298
:1016200005D4012A43EB030515F5001F12D8012844
:1016300041EB010C1CF5001F0CD80ED14FEAD17CF8
:1016400015F5001F0CEB4C0C0CF1020C08BF4CEB19
:10165000D37C04E04FF0080C01E04FEAD37C0CEBA4
:101660004C0526FA05F606F00706B6F1040C06D27C
:101670000EEB860CBDE870404CF0010C6047DFE8D3
:101680000CF0090B02024FF000414FF00000A1F5F1
:10169000002170BD19461046012851EB010418BF06
:1016A000D4F5001484BF002001F0004170BDFF217B
:1016B00041EAD050C00570470CF00F03092B08BF5A
:1016C000082000F059800A2B0BD0082B18BF704758
:1016D00008BF1CF0400F0AD04FF000004FF000018F
:1016E00070471CF0400F18BF4FF0004070471CF0CF
:1016F000100F08D020F0704300F07F4242EAD3017F
:101700004FEA4370704700F0604021F07F4242EAA8
:10171000000201F07F4040EA727070474FF0FF0C0A
:101720004CF4E06C1CEA11531CBF9CEA030C94457A
:10173000C2BFDA4201EB02517047002B0DD0BCF161
:10174000000F0FD0002A01F00041A4BF41F0E0419A
:1017500041F07F614FF00000704701F000414FF011
:101760000000704750EA01334FF09B0C18BF4CF05B
:10177000806C7FF42FAF70471CF4801F11D01CF4D5
:10178000E02F03D06FEACC31490070474FF0405052
:10179000EFF3008222F0704242EA000282F30088F6
:1017A00070474FF00000704701020203040506076E
:1017B00008090A0B0C0D0E0F1010000000000000AD
:1017C00000000102030406070809000000000102EE
:1017D00003040000F4170008000000201C000000B3
:1017E00028010008101800081C000020B4060000A2
:1017F000440100080000000000000000000000009C
:101800000100000010000000000000000024F400AF
:04000005080000ED02
:00000001FF
